:100000000C9464000C948C000C948C000C941F07CE
:100010000C941F070C941F070C948C000C948C00FC
:100020000C948C000C948C000C948C000C948C0020
:100030000C948C000C948C000C948C000C948C0010
:100040000C94B0080C948C000C94A40B0C94D60B5C
:100050000C948C000C948C000C948C000C948C00F0
:100060000C948C000C948C0000000008000201002D
:100070000003040700000000000000000102040863
:100080001020408001020408102001020408102002
:10009000040404040404040402020202020203032E
:1000A00003030303000000002300260029000000D2
:1000B0000000250028002B0000000000240027007D
:1000C0002A005F01060C840111241FBECFEFD8E087
:1000D000DEBFCDBF13E0A0E0B1E0E2EAF3E202C090
:1000E00005900D92A433B107D9F724E0A4E3B3E05F
:1000F00001C01D92AB36B207E1F710E0C6ECD0E0CC
:1001000004C02297FE010E94880FC23CD107C9F7A4
:100110000E940D0F0C94C4110C94000080E493E035
:100120000E9499078FE593E00E942C0E85E693E0EC
:100130000E942C0E8BE693E00E942C0E81E793E048
:100140000E942C0E87E793E00C942C0EDC01ED91BD
:10015000FC910190F081E02D0994CF93DF93EC01A5
:100160006EE071E08AEC93E00E94950CBE018AEC8F
:1001700093E00E949B0CBE0180E493E0DF91CF915D
:100180000C949B0CCF93DF93CDB7DEB72C970FB6B3
:10019000F894DEBF0FBECDBF26E040E855E260E038
:1001A00070E08AEC93E00E94420B40E052EC61E088
:1001B00070E080E493E00E94220865E171E080E451
:1001C00093E00E94AD0C60ED77E080E090E00E944B
:1001D000290961E271E0CE0107960E949A0E6CE255
:1001E00071E0CE0107960E94FC0E63EC72E0CE0136
:1001F00007960E94FC0E63E371E0CE0107960E9411
:10020000FC0E65EC72E0CE0107960E94FC0EBE016A
:10021000695F7F4FCE0101960E94C70ECE01019605
:100220000E94AD00CE0101960E942C0E68E873E199
:1002300080E090E00E9429096BE471E080E493E0A3
:100240000E94210E81110BC06EE471E08AEC93E0F4
:100250000E94AD0CCE0107960E942C0EBACF61E42D
:1002600071E08AEC93E00E94AD0CCE0107960E94EB
:100270002C0E81E02C960FB6F894DEBF0FBECDBFDA
:10028000DF91CF91089561E080910C010E94C70930
:1002900061E080910A010E94C70961E08091080134
:1002A0000E94C70960E0809106010E94C7090E9470
:1002B000C20064E670E080E090E00C9429096EE5ED
:1002C00071E087E793E00E949A0E66EA71E081E7A9
:1002D00093E00E949A0E6DEE71E08BE693E00E942F
:1002E0009A0E65E372E085E693E00E949A0E63E75A
:1002F00072E08FE593E00E949A0E20E043E062E016
:1003000080E493E00C94F2070C948E00CF93DF937B
:10031000CDB7DEB7A4970FB6F894DEBF0FBECDBF42
:1003200063EB72E0CE014F960E949A0E67EC72E08A
:10033000CE014F960E94FC0E6DED72E0CE014F96FD
:100340000E94FC0EBE01615E7F4FCE0101960E94AD
:10035000C70ECE0101960E94AD00CE0101960E940B
:100360002C0E64E670E080E090E00E94290968E5C8
:1003700071E080E493E00E94210E882339F06EE45E
:1003800071E08AEC93E00E94950C59C467E773E032
:10039000CE014F960E94B00E64EE72E0CE014F96F1
:1003A0000E94FC0E67EE72E080E493E00E94950CE0
:1003B0006BA17CA14AE050E080E493E00E941B0D19
:1003C00064E670E080E090E00E94290963EF72E04B
:1003D00080E493E00E94210E882309F430C463EF87
:1003E00072E08AEC93E00E94950CBE01615E7F4F43
:1003F0008AEC93E00E94870CBE01615E7F4F80E42F
:1004000093E00E94870C65EF72E080E493E00E9425
:10041000210E8823D1F16AEF72E08AEC93E00E940A
:10042000950C80E493E00E943A0690933F038093FA
:100430003E03BC018AEC93E00E94A60080E493E0B6
:100440000E943A0690933F0380933E03BC018AECDE
:1004500093E00E94A60080E493E00E943A06909305
:100460003F0380933E03BC018AEC93E00E94A60008
:1004700080E493E00E943A0690933F0380933E030A
:10048000BC018AEC93E00E94A60063EB72E0CE010F
:1004900049960E949A0E67EC72E0CE0149960E943E
:1004A000FC0E6DED72E0CE0149960E94FC0EBE017D
:1004B000675E7F4FCE0101960E94C70ECE01019666
:1004C0000E94AD00CE0101960E942C0E64E670E001
:1004D00080E090E00E94290968E571E080E493E003
:1004E0000E94210E882339F06EE471E08AEC93E0DB
:1004F0000E94950C9FC361E773E0CE0149960E946C
:10050000B00E64EE72E0CE0149960E94FC0E67EEDA
:1005100072E080E493E00E94950C6D8D7E8D4AE040
:1005200050E080E493E00E941B0D64E670E080E000
:1005300090E00E94290963EF72E080E493E00E945A
:10054000210E882309F476C363EF72E08AEC93E00E
:100550000E94950CBE01675E7F4F8AEC93E00E947B
:10056000870CBE01675E7F4F80E493E00E94870C9A
:1005700065EF72E080E493E00E94210E8823D1F1C0
:100580006AEF72E08AEC93E00E94950C80E493E0BD
:100590000E943A0690933D0380933C03BC018AEC91
:1005A00093E00E94A60080E493E00E943A069093B4
:1005B0003D0380933C03BC018AEC93E00E94A600BB
:1005C00080E493E00E943A0690933D0380933C03BD
:1005D000BC018AEC93E00E94A60080E493E00E94B4
:1005E0003A0690933D0380933C03BC018AEC93E070
:1005F0000E94A60063EB72E0CE0143960E949A0E21
:1006000067EC72E0CE0143960E94FC0E6DED72E045
:10061000CE0143960E94FC0EBE016D5E7F4FCE015F
:1006200001960E94C70ECE0101960E94AD00CE0138
:1006300001960E942C0E64E670E080E090E00E943B
:10064000290968E571E080E493E00E94210E882387
:1006500039F06EE471E08AEC93E00E94950CE5C2FB
:100660006BE673E0CE0143960E94B00E64EE72E03A
:10067000CE0143960E94FC0E67EE72E080E493E0A8
:100680000E94950C6F89788D4AE050E080E493E0F9
:100690000E941B0D64E670E080E090E00E94290952
:1006A00063EF72E080E493E00E94210E882309F456
:1006B000BCC263EF72E08AEC93E00E94950CBE012D
:1006C0006D5E7F4F8AEC93E00E94870CBE016D5EE9
:1006D0007F4F80E493E00E94870C65EF72E080E436
:1006E00093E00E94210E8823D1F16AEF72E08AEC38
:1006F00093E00E94950C80E493E00E943A06909368
:100700003B0380933A03BC018AEC93E00E94A6006D
:1007100080E493E00E943A0690933B0380933A036F
:10072000BC018AEC93E00E94A60080E493E00E9462
:100730003A0690933B0380933A03BC018AEC93E022
:100740000E94A60080E493E00E943A0690933B0347
:1007500080933A03BC018AEC93E00E94A60063EB0D
:1007600072E0CE010D960E949A0E67EC72E0CE0107
:100770000D960E94FC0E6DED72E0CE010D960E946A
:10078000FC0EBE01635F7F4FCE0101960E94C70E33
:10079000CE0101960E94AD00CE0101960E942C0E62
:1007A00064E670E080E090E00E94290968E571E06D
:1007B00080E493E00E94210E882339F06EE471E01A
:1007C0008AEC93E00E94950C2BC265E673E0CE01A3
:1007D0000D960E94B00E64EE72E0CE010D960E945E
:1007E000FC0E67EE72E080E493E00E94950C69894C
:1007F0007A894AE050E080E493E00E941B0D64E6B1
:1008000070E080E090E00E94290963EF72E080E4EC
:1008100093E00E94210E882309F402C263EF72E084
:100820008AEC93E00E94950CBE01635F7F4F8AECD7
:1008300093E00E94870CBE01635F7F4F80E493E0EA
:100840000E94870C65EF72E080E493E00E94210E25
:100850008823D1F16AEF72E08AEC93E00E94950C54
:1008600080E493E00E943A06909339038093380322
:10087000BC018AEC93E00E94A60080E493E00E9411
:100880003A069093390380933803BC018AEC93E0D5
:100890000E94A60080E493E00E943A0690933903F8
:1008A00080933803BC018AEC93E00E94A60080E4A8
:1008B00093E00E943A069093390380933803BC0179
:1008C0008AEC93E00E94A60063EB72E0CE010796EB
:1008D0000E949A0E67EC72E0CE0107960E94FC0E11
:1008E0006DED72E0CE0107960E94FC0EBE01695FBD
:1008F0007F4FCE0101960E94C70ECE0101960E9445
:10090000AD00CE0101960E942C0E64E670E080E0FE
:1009100090E00E94290968E571E080E493E00E947C
:10092000210E882339F06EE471E08AEC93E00E9496
:10093000950C71C16FE573E0CE0107960E94B00E71
:1009400064EE72E0CE0107960E94FC0E67EE72E044
:1009500080E493E00E94950C6B857C854AE050E032
:1009600080E493E00E941B0D64E670E080E090E07C
:100970000E94290963EF72E080E493E00E94210E57
:10098000882309F448C163EF72E08AEC93E00E9487
:10099000950CBE01695F7F4F8AEC93E00E94870C43
:1009A000BE01695F7F4F80E493E00E94870C65EF92
:1009B00072E080E493E00E94210E8823D1F16AEF77
:1009C00072E08AEC93E00E94950C80E493E00E9430
:1009D0003A069093370380933603BC018AEC93E088
:1009E0000E94A60080E493E00E943A0690933703A9
:1009F00080933603BC018AEC93E00E94A60080E459
:100A000093E00E943A069093370380933603BC012B
:100A10008AEC93E00E94A60080E493E00E943A06EC
:100A20009093370380933603BC018AEC93E00E94D5
:100A3000A60020913E0330913F03809138039091AE
:100A4000390321333105B1F48133910599F461E023
:100A500080910C010E94000A60E080910A010E94CE
:100A6000000A10923D0310923C0310923B03109237
:100A70003A030CC0C09751F461E080910C010E94D0
:100A8000000A61E080910A010E94000A20913E0361
:100A900030913F0380913603909137032133310524
:100AA00089F48133910571F460E0809108010E941E
:100AB000000A10923D0310923C0310923B031092E7
:100AC0003A0307C0C09729F461E0809108010E94B1
:100AD000000A20913C0330913D03809138039091AE
:100AE000390321333105B1F48133910599F461E083
:100AF00080910C010E94000A60E080910A010E942E
:100B0000000A10923F0310923E0310923B03109292
:100B10003A030CC0C09751F461E080910C010E942F
:100B2000000A61E080910A010E94000A20913C03C2
:100B300030913D0380913603909137032133310585
:100B400089F48133910571F460E0809108010E947D
:100B5000000A10923F0310923E0310923B03109242
:100B60003A0307C0C09729F461E0809108010E9410
:100B7000000A20913A0330913B0380913403909115
:100B8000350321333105C9F481339105B1F4109255
:100B90003F0310923E0310923D0310923C0361E02C
:100BA00080910C010E94000A60E080910A010E947D
:100BB000000A60E0809108010FC0C09779F461E0FD
:100BC000809108010E94000A61E080910C010E945E
:100BD000000A61E080910A010E94000ACE01079696
:100BE0000E942C0ECE010D960E942C0ECE01439633
:100BF0000E942C0ECE0149960E942C0ECE014F96DB
:100C00000E942C0EA4960FB6F894DEBF0FBECDBF87
:100C1000DF91CF910895CE0107960E942C0E54CEFD
:100C2000CE010D960E942C0E9ACDCE0143960E94C5
:100C30002C0EE0CCCE0149960E942C0E26CCCE0183
:100C40004F960E942C0E6CCB809106010E94360AB2
:100C5000909335038093340368EC70E080E090E07B
:100C60000E9429090E94860168EE73E080E090E00E
:100C70000C9429092091BF033091C003281739072C
:100C8000B9F490917D0380917E03981789F0E091EB
:100C90007D03F0E0E158FC4F808120917D0330E03E
:100CA0002F5F3F4F2F73332720937D0390E00895EC
:100CB0008FEF9FEF08951F93CF93DF93DC015C9636
:100CC0008D919C915D97009749F481E090E0139697
:100CD0009C938E93129780E090E03BC05196ED91EB
:100CE000FC91529750962C915097322F30951FB708
:100CF0005E964C915E9741FB772770F941FD6095B8
:100D0000F8944081772311F0422B01C043234083A4
:100D1000EC012197F1F748E0508160FF02C0522BAF
:100D200001C053235083EC012197F1F766954150A0
:100D300099F78081772311F0832301C0822B808370
:100D40001FBF5C968D919C915D970197F1F781E0B3
:100D500090E0DF91CF911F91089508952091BF03F6
:100D60003091C0032817390781F490917D03809159
:100D70007E03981751F0E0917D03F0E0E158FC4FBD
:100D80008081992787FD909508958FEF9FEF0895B3
:100D90002091BF033091C0032817390771F4809167
:100DA0007E0320917D0390E0805C9F4F821B910920
:100DB00060E470E00E941D0F089580E090E00895C7
:100DC000E091BF03F091C003E817F90769F4A38924
:100DD000B4899C918589809589238C931092C00356
:100DE0001092BF0381E0089580E00895CF93DF93D0
:100DF000EC018A8D9B8D892BF1F08091BF0390913E
:100E0000C0038C179D07B9F0009711F00E94E0060F
:100E10008E8D8E7F8E8F10927E0310927D03D093E5
:100E2000C003C093BF03EB89FC8980819D89892B16
:100E3000808381E001C080E0DF91CF9108951F920F
:100E40000F920FB60F9211242F933F934F935F93FE
:100E50006F937F938F939F93AF93BF93EF93FF9382
:100E6000E091BF03F091C003309709F451C0868D23
:100E7000A685B785958581FF04C08C91892329F4C7
:100E800047C08C91892309F043C0A389B4899C9100
:100E90008589809589238C93868997890197F1F7B5
:100EA000208D318DA685B785758558E040E0C90154
:100EB0000197F1F7842F90E095958795482F6C91D5
:100EC000672309F04068515091F7868D81FD409568
:100ED00080917E0390E001968F73992720917D0386
:100EE000281749F0A0917E03B0E0A158BC4F4C9365
:100EF00080937E0303C0868D8160868F828D938D63
:100F00000197F1F7A389B4898C919589892B8C93EA
:100F1000FF91EF91BF91AF919F918F917F916F91D1
:100F20005F914F913F912F910F900FBE0F901F90A7
:100F3000189529E033E0FC01318320830C94E0060E
:100F40001F93CF93DF93EC01162F6E8D6695617022
:100F500081E06827812F0E94000A61E0812F0E94B2
:100F6000C709812F90E0FC01E458FF4FE491E88B22
:100F7000FC01E057FF4FE491F0E0EE0FFF1FE25558
:100F8000FF4F859194919A8B898BDF91CF911F911F
:100F900008951F93CF93DF93EC01162F60E0812F0C
:100FA0000E94C7098E8D81FD04C061E0812F0E94DF
:100FB000000A1C87812F90E0FC01E458FF4FE49168
:100FC000ED87FC01E057FF4FE491F0E0EE0FFF1FCB
:100FD000EC55FF4F859194919F878E87DF91CF913C
:100FE0001F910895FF920F931F93CF93DF93EC010E
:100FF000F62E522F1B821A8208EE13E020E030E01A
:101000000C831D832E833F8389E093E0998388833B
:101010001F8A1E8A198E188E1B8E1A8E1D8E1C8E8C
:101020008E8D8E7F50FB81F98E8F642FCE010E94B2
:10103000A0076F2DCE01DF91CF911F910F91FF90EF
:101040000C94C907CF93DF93EC019A01AB011B8E7F
:101050001A8E198E188E1F8A1E8A60E079E08DE341
:1010600090E00E94530FC9012430310520F0B901EE
:101070006350710902C061E070E07D8F6C8FEC8578
:10108000E63108F068C0B90176956795643171055D
:1010900018F06351710902C061E070E07F8B6E8BC4
:1010A000069718F0C901059702C081E090E0998F7A
:1010B000888FC901880F991F820F931F9695879576
:1010C000969587958D30910510F00C9702C081E0C0
:1010D00090E09B8F8A8F20916800E83050F091E07B
:1010E000EE3008F490E081E001C0880F9A95EAF7AD
:1010F00001C084E0822B809368002C85283038F072
:101100002E3040F0263148F48CE690E008C08DE6A1
:1011100090E005C08BE690E002C080E090E09C8B00
:101120008B8B283030F481E001C0880F2A95EAF7D4
:101130000DC0822F90E02E3010F4089701C00E975A
:1011400091E001C0990F8A95EAF7892F8D8B8C8DDC
:101150009D8D0197F1F7CE01DF91CF910C94F606AA
:101160001F920F920FB60F9211242F933F938F93DC
:101170009F93AF93BF938091C2039091C303A091BB
:10118000C403B091C5033091C10323E0230F2D3771
:1011900020F40196A11DB11D05C026E8230F02967B
:1011A000A11DB11D2093C1038093C2039093C3037B
:1011B000A093C403B093C5038091C6039091C70365
:1011C000A091C803B091C9030196A11DB11D8093E0
:1011D000C6039093C703A093C803B093C903BF91FC
:1011E000AF919F918F913F912F910F900FBE0F90D4
:1011F0001F9018952FB7F8946091C2037091C303A4
:101200008091C4039091C5032FBF08953FB7F89410
:101210008091C6039091C703A091C803B091C90300
:1012200026B5A89B05C02F3F19F00196A11DB11D41
:101230003FBF6627782F892F9A2F620F711D811D5E
:10124000911D42E0660F771F881F991F4A95D1F7BD
:1012500008958F929F92AF92BF92CF92DF92EF92BA
:10126000FF926B017C010E9406094B015C01C114D5
:10127000D104E104F104F1F00E941C0F0E94060960
:10128000681979098A099B09683E734081059105AF
:1012900070F321E0C21AD108E108F10888EE880E47
:1012A00083E0981EA11CB11CC114D104E104F10417
:1012B00029F7DDCFFF90EF90DF90CF90BF90AF90F8
:1012C0009F908F900895789484B5826084BD84B592
:1012D000816084BD85B5826085BD85B5816085BD31
:1012E000EEE6F0E0808181608083E1E8F0E010824A
:1012F000808182608083808181608083E0E8F0E08B
:10130000808181608083E1EBF0E080818460808374
:10131000E0EBF0E0808181608083EAE7F0E08081AB
:10132000846080838081826080838081816080830B
:101330008081806880831092C1000895833081F09D
:1013400028F4813099F08230A1F008958730A9F017
:101350008830B9F08430D1F4809180008F7D03C053
:10136000809180008F7780938000089584B58F7777
:1013700002C084B58F7D84BD08958091B0008F77C1
:1013800003C08091B0008F7D8093B0000895CF930B
:10139000DF9390E0FC01E458FF4F2491FC01E057FB
:1013A000FF4F8491882349F190E0880F991FFC0139
:1013B000E854FF4FA591B49182559F4FFC01C59110
:1013C000D4919FB7611108C0F8948C912095822325
:1013D0008C93888182230AC0623051F4F8948C91F6
:1013E000322F309583238C938881822B888304C08D
:1013F000F8948C91822B8C939FBFDF91CF910895AD
:101400000F931F93CF93DF931F92CDB7DEB7282F93
:1014100030E0F901E859FF4F8491F901E458FF4F9A
:101420001491F901E057FF4F04910023C9F088237C
:1014300021F069830E949E096981E02FF0E0EE0FA0
:10144000FF1FE255FF4FA591B4919FB7F8948C917F
:10145000611103C01095812301C0812B8C939FBF24
:101460000F90DF91CF911F910F910895CF93DF934C
:10147000282F30E0F901E859FF4F8491F901E45831
:10148000FF4FD491F901E057FF4FC491CC2391F065
:1014900081110E949E09EC2FF0E0EE0FFF1FEC552A
:1014A000FF4FA591B4912C912D2381E090E021F480
:1014B00080E002C080E090E0DF91CF910895FC01D0
:1014C000818D228D90E0805C9F4F821B91098F73EC
:1014D00099270895FC01918D828D981731F0828DA6
:1014E000E80FF11D858D90E008958FEF9FEF08952F
:1014F000FC01918D828D981761F0828DDF01A80F1C
:10150000B11D5D968C91928D9F5F9F73928F90E03D
:1015100008958FEF9FEF08958CEF9BE0892B49F0A2
:1015200080E090E0892B29F00E94FC0B81110C9443
:1015300000000895FC01848DDF01A80FB11DA35A9E
:10154000BF4F2C91848D90E001968F739927848FE3
:10155000A689B7892C93A089B1898C9180648C93DA
:10156000938D848D981306C00288F389E02D8081C5
:101570008F7D80830895CF93DF93EC01888D88233E
:10158000C9F0EA89FB89808185FD05C0A889B989F0
:101590008C9186FD0FC00FB607FCF5CF808185FFCB
:1015A000F2CFA889B9898C9185FFEDCFCE010E9439
:1015B0009A0AE7CFDF91CF910895CF92DF92FF9201
:1015C0000F931F93CF93DF931F92CDB7DEB76C01BC
:1015D00081E0D60158968C9358975B969C915B97C7
:1015E0005C968C915C97981307C05096ED91FC9196
:1015F0005197808185FD2EC0F601038D10E00F5FAD
:101600001F4F0F731127F02EF601848DF81211C0B1
:101610000FB607FCF9CFD6015096ED91FC9151978A
:10162000808185FFF1CFC60169830E949A0A698192
:10163000EBCF838DE80FF11DE35AFF4F6083D60196
:101640005B960C935B975296ED91FC91539780813A
:1016500080620CC0D6015696ED91FC91579760833D
:101660005096ED91FC91519780818064808381E058
:1016700090E00F90DF91CF911F910F91FF90DF903D
:10168000CF900895BF92CF92DF92EF92FF92CF93C7
:10169000DF93EC016A017B01B22EE889F98982E0CF
:1016A0008083411581EE580761057105A1F060E066
:1016B00079E08DE390E0A70196010E94310F21505F
:1016C00031094109510956954795379527952115B7
:1016D00080E1380798F0E889F989108260E874E8B9
:1016E0008EE190E0A70196010E94310F215031094F
:1016F000410951095695479537952795EC85FD8504
:101700003083EE85FF852083188EEC89FD89B082B9
:10171000EA89FB89808180618083EA89FB898081F5
:1017200088608083EA89FB89808180688083EA8978
:10173000FB8980818F7D8083DF91CF91FF90EF9037
:10174000DF90CF90BF9008951F920F920FB60F9227
:1017500011242F938F939F93EF93FF93E091DA03DC
:10176000F091DB038081E091E003F091E10382FDE1
:1017700012C090818091E3038F5F8F732091E40307
:10178000821751F0E091E303F0E0E653FC4F958FB0
:101790008093E30301C08081FF91EF919F918F912E
:1017A0002F910F900FBE0F901F9018951F920F92C0
:1017B0000FB60F9211242F933F934F935F936F9324
:1017C0007F938F939F93AF93BF93EF93FF938AEC95
:1017D00093E00E949A0AFF91EF91BF91AF919F9180
:1017E0008F917F916F915F914F913F912F910F90CA
:1017F0000FBE0F901F9018958AEC93E00E945F0A2D
:1018000021E0892B09F420E0822F08951092CD0366
:101810001092CC0388EE93E0A0E0B0E08093CE037A
:101820009093CF03A093D003B093D10389E193E0C9
:101830009093CB038093CA0385EC90E09093D703F9
:101840008093D60384EC90E09093D9038093D803DF
:1018500080EC90E09093DB038093DA0381EC90E0DE
:101860009093DD038093DC0382EC90E09093DF03A0
:101870008093DE0386EC90E09093E1038093E00395
:101880001092E3031092E4031092E5031092E60332
:101890000895CF92DF92EF92FF920F931F93CF9311
:1018A000DF937C016A01EB0100E010E00C151D05DF
:1018B00071F06991D701ED91FC910190F081E02DDB
:1018C000C7010995892B19F00F5F1F4FEFCFC80192
:1018D000DF91CF911F910F91FF90EF90DF90CF900C
:1018E00008956115710581F0DB010D900020E9F785
:1018F000AD0141505109461B570BDC01ED91FC91A4
:101900000280F381E02D099480E090E00895DC01ED
:10191000ED91FC91DB0114964D915C9115976D91C1
:101920007C910280F381E02D09940C94710C64EE9B
:1019300072E00C94710C0F931F93CF93DF93EC0123
:101940000E94870C8C01CE010E94970C800F911F82
:10195000DF91CF911F910F9108950F931F93CF9314
:10196000DF93EC010E94710C8C01CE010E94970C58
:10197000800F911FDF91CF911F910F9108958F924A
:101980009F92AF92BF92DF92EF92FF920F931F93BD
:10199000CF93DF93CDB7DEB7A1970FB6F894DEBF34
:1019A0000FBECDBF7C01F42FD52ECB0119A2223062
:1019B00008F42AE08E010F5D1F4F822E912CA12C7E
:1019C000B12C6F2F7D2DA50194010E94310FF22FB4
:1019D000D32ECA01015011096A3014F4E0E301C0AA
:1019E000E7E3E60FD801EC93232B242B252B49F7B3
:1019F000B801C7010E94710CA1960FB6F894DEBF22
:101A00000FBECDBFDF91CF911F910F91FF90EF904F
:101A1000DF90BF90AF909F908F9008952115310572
:101A200041F4DC01ED91FC910190F081E02D642FF7
:101A300009940C94BF0C0F931F93CF93DF93EC0189
:101A40009A01AB0160E070E00E940E0D8C01CE01A6
:101A50000E94970C800F911FDF91CF911F910F91E2
:101A600008950F931F93CF93DF93EC010E94FA0820
:101A7000688779878A879B87E881F9810680F78163
:101A8000E02DCE01099597FF15C00E94FA08088540
:101A900019852A853B85601B710B820B930B0C818A
:101AA0001D812E813F81601771078207930720F304
:101AB0008FEF9FEFDF91CF911F910F9108954F927C
:101AC0005F926F927F928F929F92AF92BF92CF92CE
:101AD000DF92EF92FF920F931F93CF93DF934C010E
:101AE000EB0186E0849F8001859F100D1124060F75
:101AF000171FFB01E017F10708F582819381892BFD
:101B000021F13696F7CF4081518164817581DA01E8
:101B1000A60FB71F2C91332727FD30958217930707
:101B200011F56F5F7F4F7583648322813381621764
:101B3000730759F03696E017F10728F3C4010E94A5
:101B4000310D97FD46C0FE01F6CFEC1BFD0BF59560
:101B5000E7952BEA3AEAE29FC001E39F900DF29FDE
:101B6000900D112438C06115710521F3A480B58052
:101B700095012150310935832483DA01A20FB31F67
:101B8000AC91BB27A7FDB0958A179B07F9F42115E7
:101B90003105C9F06A017B01E21AF30AE40EF51E71
:101BA000412C512CD6016D906D01D7017D907D01A6
:101BB000671006C0BFEF4B1A5B0A4216530690F33C
:101BC0004216530699F6B582A482B4CF232B71F640
:101BD000B1CF8FEF9FEFDF91CF911F910F91FF90CA
:101BE000EF90DF90CF90BF90AF909F908F907F90BD
:101BF0006F905F904F900895CF93DF9300D000D007
:101C000000D0CDB7DEB7FE01319626E0DF011D9290
:101C10002A95E9F77A8369835C834B8341E050E03E
:101C2000BF010E945F0D21E0892B09F020E0822F87
:101C300026960FB6F894DEBF0FBECDBFDF91CF91D1
:101C40000895FB0101900020E9F7AF0141505109CF
:101C5000461B570B0C94FC0DFC01808191810C9468
:101C60002410CF93DF93EC0188819981009711F0C4
:101C70000E942410198218821D821C821B821A82E3
:101C8000DF91CF9108950F931F93CF93DF93EC01D2
:101C90008B016F5F7F4F888199810E94B3100097FD
:101CA00031F0998388831B830A8381E001C080E03F
:101CB000DF91CF911F910F910895CF93DF93EC01A6
:101CC00088819981892B29F08A819B8186179707C2
:101CD00060F4CE010E94430E882341F08C819D81E7
:101CE000892B19F4E881F981108281E0DF91CF918D
:101CF0000895EF92FF920F931F93CF93DF93EC0120
:101D00007B018A01BA010E945D0E811104C0CE01DF
:101D10000E94310E07C01D830C83B7018881998111
:101D20000E948611CE01DF91CF911F910F91FF90FC
:101D3000EF900895FC0111821082138212821582A5
:101D400014826115710559F0FB0101900020E9F73B
:101D5000AF0141505109461B570B0C94790E089561
:101D6000CF93DF93EC01FB018617970761F0608149
:101D700071816115710529F0448155810E94790EA8
:101D800002C00E94310ECE01DF91CF910895FC0177
:101D90001182108213821282158214820C94B00E6A
:101DA000EF92FF920F931F93CF93DF93EC017B0190
:101DB0000C811D816115710511F480E016C041157B
:101DC000510591F0040F151FB8010E945D0E882384
:101DD000A1F3288139818C819D81B701820F931FE6
:101DE0000E9486111D830C8381E0DF91CF911F91AA
:101DF0000F91FF90EF9008956115710559F0FB0167
:101E000001900020E9F7AF0141505109461B570BE3
:101E10000C94D00E80E0089508950E9463090E94FA
:101E20000C0F0E944301CCE8DAE00E9424062097C0
:101E3000E1F30E948C0AF9CF089597FB072E16F460
:101E4000009407D077FD09D00E94720F07FC05D0DF
:101E50003EF4909581959F4F0895709561957F4FC1
:101E60000895A1E21A2EAA1BBB1BFD010DC0AA1FDB
:101E7000BB1FEE1FFF1FA217B307E407F50720F0F3
:101E8000A21BB30BE40BF50B661F771F881F991F6E
:101E90001A9469F760957095809590959B01AC01B7
:101EA000BD01CF010895052E97FB1EF400940E94FA
:101EB0006A0F57FD07D00E94310F07FC03D04EF484
:101EC0000C946A0F50954095309521953F4F4F4F98
:101ED0005F4F089590958095709561957F4F8F4FD6
:101EE0009F4F0895AA1BBB1B51E107C0AA1FBB1F30
:101EF000A617B70710F0A61BB70B881F991F5A9596
:101F0000A9F780959095BC01CD010895EE0FFF1FB4
:101F10000590F491E02D0994CF93DF9382309105E1
:101F200010F482E090E0E0916904F0916A0420E00E
:101F300030E0A0E0B0E0309739F14081518148179E
:101F40005907B8F04817590771F4828193811097A7
:101F500029F013969C938E9312972CC090936A0449
:101F60008093690427C02115310531F042175307CA
:101F700018F0A901DB0101C0EF019A01BD01DF01E9
:101F80000280F381E02DD7CF21153105F9F0281B10
:101F9000390B2430310580F48A819B8161157105EC
:101FA00021F0FB019383828304C090936A048093A1
:101FB0006904FE01329644C0FE01E20FF31F8193D3
:101FC000919322503109398328833AC020916704C4
:101FD00030916804232B41F42091020130910301D8
:101FE000309368042093670420910001309101012F
:101FF0002115310541F42DB73EB7409104015091B0
:102000000501241B350BE0916704F0916804E21789
:10201000F307A0F42E1B3F0B2817390778F0AC010B
:102020004E5F5F4F2417350748F04E0F5F1F5093E8
:102030006804409367048193919302C0E0E0F0E06C
:10204000CF01DF91CF910895CF93DF93009709F4EB
:1020500087C0FC01329713821282C0916904D0912B
:102060006A04209781F420813181280F391F8091E3
:102070006704909168048217930779F5F0936804D8
:10208000E09367046DC0DE0120E030E0AE17BF07CB
:1020900050F412964D915C9113979D014115510595
:1020A00009F1DA01F3CFB383A28340815181840F18
:1020B000951F8A179B0771F48D919C911197840F3E
:1020C000951F02969183808312968D919C91139710
:1020D000938382832115310529F4F0936A04E093F8
:1020E00069043EC0D9011396FC93EE9312974D916B
:1020F0005D91A40FB51FEA17FB0779F480819181E8
:10210000840F951F0296D90111969C938E9382811C
:10211000938113969C938E931297E0E0F0E08A816E
:102120009B81009719F0FE01EC01F9CFCE010296D8
:1021300028813981820F931F2091670430916804B0
:102140002817390769F4309729F410926A0410921D
:10215000690402C013821282D0936804C09367049A
:10216000DF91CF910895A0E0B0E0E9EBF0E10C94AD
:102170009111EC01CB01209719F40E948C0FB8C08B
:10218000FE01E60FF71F9E0122503109E217F30707
:1021900008F4ACC0D9010D911C91119706171707CF
:1021A000B8F00530110508F49FC0A801445051094A
:1021B0004617570708F498C002501109061B170B61
:1021C000019311936D937C93CF010E9424108CC0D6
:1021D0005B01A01AB10A4E01800E911EA091690404
:1021E000B0916A04612C712C60E070E0109709F4E2
:1021F00049C0A815B905C9F5ED90FC901197670184
:1022000042E0C40ED11CCA14DB0478F147018A18DD
:102210009B08640142E0C40ED11C1296BC90129738
:102220001396AC91B5E0CB16D10440F0B282A383F3
:1022300091828082D9018D939C9309C00E5F1F4FBC
:102240000E0D1F1DF90111830083EB2DFA2F61156F
:10225000710531F0DB011396FC93EE93129744C0A5
:10226000F0936A04E09369043FC06D917C911197EB
:102270006616770608F43B01BD0112960D90BC91DD
:10228000A02DB4CF6091670470916804681579053A
:10229000E9F468167906D0F44091000150910101EB
:1022A0004115510541F44DB75EB76091040170913D
:1022B0000501461B570BE417F507C0F4F0936804BB
:1022C000E0936704F901918380830EC00E948C0F14
:1022D0007C01009759F0A801BE010E947D11CE013A
:1022E0000E942410C70104C0CE0102C080E090E02B
:1022F000CDB7DEB7EEE00C94AD11FB01DC0102C0FE
:1023000001900D9241505040D8F70895FB01DC0137
:1023100001900D920020E1F708952F923F924F9285
:102320005F926F927F928F929F92AF92BF92CF9265
:10233000DF92EF92FF920F931F93CF93DF93CDB76E
:10234000DEB7CA1BDB0B0FB6F894DEBF0FBECDBFE6
:1023500009942A88398848885F846E847D848C84B7
:102360009B84AA84B984C884DF80EE80FD800C81C0
:102370001B81AA81B981CE0FD11D0FB6F894DEBFA3
:102380000FBECDBFED01089510E0C6ECD0E004C053
:10239000FE010E94880F2296C83CD107C9F7F89425
:0223A000FFCF6D
:1023A20000006B048000080006000500040053458D
:1023B2004E443A200041542B43574D4F44453D3142
:1023C2000041542B43574A41503D22004A6F686EE8
:1023D200706B006A6F686E7072656D6B756D61729D
:1023E2000052454345495645443A204F4B00524519
:1023F2004345495645443A204572726F72006D75E5
:102402006C74697C4C567C4131452D6A39784A4F4F
:102412006B454A66795958706C5731467A3269323F
:10242200445A52464D4B6835487C6D756C746961EF
:1024320075746F3A627574746F6E636F6E74726FD7
:102442006C7C656E64006D756C74697C4C567C4165
:1024520031452D6A39784A4F6B454A667959587029
:102462006C5731467A326932445A52464D4B68357E
:10247200487C6D756C74696175746F3A766F6963C7
:1024820065636F6E74726F6C7C656E64006D756CE3
:1024920074697C4C567C4131452D6A39784A4F6BC0
:1024A200454A66795958706C5731467A32693244D6
:1024B2005A52464D4B6835487C6D756C746961752E
:1024C200746F3A6D6F74696F6E636F6E74726F6C56
:1024D2007C656E64006D756C74697C4C567C413110
:1024E200452D6A39784A4F6B454A66795958706C5E
:1024F2005731467A326932445A52464D4B68354812
:102502007C6D756C74696175746F3A66616E7C6519
:102512006E64006D756C74697C4C567C4131452D3E
:102522006A39784A4F6B454A66795958706C573107
:10253200467A326932445A52464D4B6835487C6D70
:10254200756C74696175746F3A6C696768747C65DF
:102552006E640041542B43495053544152543D221E
:10256200544350222C22007472616E736C61746544
:102572002E756269646F74732E636F6D00222C393D
:10258200303132000D0A0041542B43495053454E1D
:10259200443D003E002B495044002B495044204604
:1025A2006F756E6400000000005B06490CC8063AB5
:1025B20006AE06AD0600000000DD0A490C5F0A788F
:1025C2000A6A0ABB0A6E616E00696E66006F766601
:0425D200002E0000D7
:00000001FF
